:100000000C941B010C944C010C944C010C944C016D
:100010000C944C010C944C010C944C010C944C012C
:100020000C944C010C944C010C944C010C944C011C
:100030000C944C010C944C010C944C010C944C010C
:100040000C944C010C944C010C944C010C944C01FC
:100050000C944C010C944C010C944C010C94F30D39
:100060000C944C010C94670E0C943D0E0C944C01B6
:100070000C944C010C944C010C944C010C944C01CC
:100080000C944C010C944C010C944C010C944C01BC
:100090000C944C010C944C010C944C010C944C01AC
:1000A0000C944C010C944C010C944C010C944C019C
:1000B0000C944C010C944C010C944C010C944C018C
:1000C0000C944C010C944C010C944C010C944C017C
:1000D0000C944C010C944C010C944C010C944C016C
:1000E0000C944C010C94AE010C94C6010C94D001FC
:1000F0000C94A1010C949D010C947E010C940A02B5
:100100000C94BC010C9437020C94A4010C9446028C
:100110000C94D4010C94ED020C94B8010C94B4012D
:100120000C9499010C94AA010C94C2010C945A02EB
:100130000C94BD130C9468020C9483010C94A002DF
:100140000C9495010C94CA0100002200250028009F
:100150002B002E00310034000201000005010801CF
:100160000B0105050505070508080808020202023B
:100170000A0A080804040404010101010101010143
:100180000303030303030303040707070C0C0C0C0E
:100190000C0C0C0C020202020606060606060606F7
:1001A0000B0B0B0B0B0B0B0B010210202008081084
:1001B00020401020408002010201080402010102D7
:1001C00004081020408080402010080402018004B0
:1001D000020180402010080402010804020101020B
:1001E0000408102040800102040810204080000014
:1001F0000A0B02090C0D0E080703040100000000A1
:1002000000000000000000000000000000000000EE
:1002100000000000000000000000121110000000AB
:1002200000000000000000000000000000000000CE
:1002300000000000BD1311241FBECFEFDFEFDEBFB3
:10024000CDBF00E00CBF14E0A0E0B2E0E0EBFAE2CA
:1002500000E00BBF02C007900D92AA38B107D9F792
:1002600028E0AAE8B4E001C01D92A339B207E1F783
:1002700011E0CBE1D1E000E006C021970109802F19
:10028000FE010E94EA13CA31D10780E00807A9F7EE
:100290000E949D0E0C9456150C940000282F30E0FF
:1002A000F901E251FE4F9491F901E855FE4F449156
:1002B0002E593E4FF9012491222309F435C0992388
:1002C00011F191509231F8F4E92FF0E08827E459C8
:1002D000FE4F8F4F0C94EA139D01A1017E01950101
:1002E00099018301A401AA01AE01B401B801BC01C6
:1002F000C201C6018301CA01D001D40180918000EE
:100300008F7780938000E22FF0E0EE0FFF1FE85B15
:10031000FE4FA591B4918FB7F894EC91611148C04C
:1003200040954E234C938FBF0895809180008F7D20
:10033000E8CF80918000877FE4CF84B58F7784BD3C
:10034000E2CF84B58F7DFBCF8091B0008F77809313
:10035000B000D9CF8091B0008F7DF9CF809190000F
:100360008F7780939000CFCF809190008F7DF9CFD1
:1003700080919000877FF5CF8091A0008F77809348
:10038000A000C1CF8091A0008F7DF9CF8091A00007
:10039000877FF5CF809120018F7780932001B3CFA5
:1003A000809120018F7DF9CF80912001877FF5CF4B
:1003B0004E2BB8CF8230910538F0880F991F880FE7
:1003C000991F05970197F1F708953FB7F894809129
:1003D0008B0890918C08A0918D08B0918E0826B55D
:1003E000A89B05C02F3F19F00196A11DB11D3FBF6D
:1003F000BA2FA92F982F8827BC01CD01620F711D3C
:10040000811D911D42E0660F771F881F991F4A9535
:10041000D1F70895AF92BF92CF92DF92EF92FF9201
:100420000F931F93CF93DF936C017B018B01040F1C
:10043000151FEB015E01AE18BF08C017D10759F0B8
:100440006991D601ED91FC910190F081E02DC601FA
:100450001995892B79F7C501DF91CF911F910F91E4
:10046000FF90EF90DF90CF90BF90AF900895FC0188
:10047000538D448D252F30E0842F90E0821B930B09
:10048000541710F0CF96089501970895FC01918DAF
:10049000828D981761F0A28DAE0FBF2FB11D5D96B2
:1004A0008C91928D9F5F9F73928F90E008958FEF54
:1004B0009FEF0895FC01918D828D981731F0828D08
:1004C000E80FF11D858D90E008958FEF9FEF08955F
:1004D000FC01918D228D892F90E0805C9F4F821BC3
:1004E00091098F73992708958EE897E00E9468021A
:1004F00021E0892B09F420E0822F0895FC01A48DCE
:10050000A80FB92FB11DA35ABF4F2C91848D90E035
:1005100001968F739927848FA689B7892C93A08918
:10052000B1898C91837080648C93938D848D9813A2
:1005300006C00288F389E02D80818F7D8083089535
:10054000EF92FF920F931F93CF93DF93EC0181E023
:10055000888F9B8D8C8D98131AC0E889F9898081CA
:1005600085FF15C09FB7F894EE89FF896083E889FD
:10057000F98980818370806480839FBF81E090E0EF
:10058000DF91CF911F910F91FF90EF900895F62E7C
:100590000B8D10E00F5F1F4F0F731127E02E8C8D16
:1005A0008E110CC00FB607FCFACFE889F98980815B
:1005B00085FFF5CFCE010E947E02F1CFEB8DEC0FCF
:1005C000FD2FF11DE35AFF4FF0829FB7F8940B8F78
:1005D000EA89FB8980818062CFCFCF93DF93EC01E2
:1005E000888D8823B9F0AA89BB89E889F9898C911B
:1005F00085FD03C0808186FD0DC00FB607FCF7CFD7
:100600008C9185FFF2CF808185FFEDCFCE010E94D6
:100610007E02E9CFDF91CF91089580E090E0892BB1
:1006200029F00E94740281110E94000080E090E095
:10063000892B49F080E090E0892B29F00E9400008E
:1006400081110E94000080E090E0892B49F080E059
:1006500090E0892B29F00E94000081110E94000087
:1006600080E090E0892B49F080E090E0892B29F030
:100670000E94000081110C9400000895880F991FBA
:10068000880F991FFC01EA5FFB4F808191812281D5
:1006900033812F30310571F02733310549F4FC01E6
:1006A000228121FF02C003960895808191810895DF
:1006B00090E080E0089520919C04209530E0F901BD
:1006C000EA5FFC4F908190952A5F3D4FD9018C9154
:1006D00040919A0450919B0442505109ECE9F4E096
:1006E00031969F012C5934402417350770F420812E
:1006F0009227292F30E0D901AA5FBC4F9C919827FF
:100700002A5F3D4FD9018C91EBCF089523E030E073
:1007100030939B0420939A04ECE9F4E090917B07DA
:10072000908380588183628308950F931F93582F7D
:10073000577001E010E020E030E004C0000F111F0E
:10074000221F331F5A95D2F723E0969587952A9555
:10075000E1F79927E0918507F0918607662321F05C
:10076000E0918B07F0918C07E80FF91F80814423FB
:1007700029F0082B00831F910F91089500950823FD
:10078000F9CF2F923F924F925F926F927F928F920A
:100790009F92AF92BF92CF92DF92EF92FF920F9310
:1007A0001F93CF93DF93CDB7DEB7C354D1090FB6F4
:1007B000F894DEBF0FBECDBF10E000E0F801EE0FF1
:1007C000FF1FE55FF84F0190F081E02D309749F071
:1007D00041E08081811101C040E060E0C8010E94D9
:1007E00095030F5F1F4F0833110541F7E0907C0719
:1007F000F0907D070BEC16E019AF08AF8701005CA5
:100800001F4FF7012BEC36E0D9018D919D919D0191
:10081000009729F0DC018D919C9191838083329621
:100820000E171F0789F7D12CC12CF601EE0FFF1F01
:10083000E55AF94F0190F081E02D309749F041E001
:100840008081811101C040E061E0C6010E949503F2
:10085000BFEFCB1ADB0AE8E3CE16D10431F74BE148
:1008600056E0E0918807F09189079F01205C3F4F97
:10087000DA018D919D91AD01009729F0DC018D91F8
:100880009C919183808332962E173F0789F7E3EF7F
:10089000F5E0FBAFEAAFF80108E6E00EF11C23EF4C
:1008A00035E0D9018D919D919D01009729F0DC01E2
:1008B0008D919C91918380833296EE16FF0689F785
:1008C000EBECF5E0FDAFECAFE0917F07F091800736
:1008D0009F01205B3F4F0BEC15E0D8018D919D915E
:1008E0008D01009749F0DC014D915D916D917C91F6
:1008F000408351836283738334962E173F0769F7D1
:10090000E3EAF5E0FFAFEEAFE0918207F0918307F5
:100910009F0120563F4F83EA95E0DC01CD90DD90AA
:10092000CD01C114D104F1F0D601EC901196FC90E8
:10093000119712960C91129713961C911397149677
:100940007C91149715966C91159716965C91169755
:1009500017964C91E082F18202831383748365833E
:100960005683478338962E173F07B9F610929B049B
:1009700010929A048091A1059091A205DC01ED915D
:10098000FC910084F185E02D1995892B09F483C031
:100990008091A1059091A205DC01ED91FC9100846C
:1009A000F185E02D199520919A0430919B04A09136
:1009B000A105B091A205ED91FC9111970084F185FC
:1009C000E02D2817390768F4CD01199590939B0401
:1009D00080939A0480919E0590919F050E94DA0170
:1009E000D7CFCD011995813091400CF054C0809142
:1009F000A1059091A205DC01ED91FC910084F185A7
:100A0000E02D199506970CF446C04CE9842E44E07D
:100A1000942E8401E0909A04F0909B04C8018C59B4
:100A200094408E159F0578F48091A1059091A205C0
:100A3000DC01ED91FC910284F385E02D1995F8011C
:100A400081938F01E7CF10919D048FEB810F85304B
:100A500080F00E945B03970124563B4FF9013297C7
:100A6000408121503109D9012C91342F28173907A1
:100A700091F490919C0480917B07981709F4CDC064
:100A80008091A1059091A205DC01ED91FC91068079
:100A9000F781E02D1995409185075091860730E048
:100AA00020E0F901EE0FFF1FE55FF84F0190F081A4
:100AB000E02D309799F0D90183E0B695A7958A95F6
:100AC000E1F7A40FB51F8C9190E0622F677002C010
:100AD000959587956A95E2F7817080832F5F3F4FE8
:100AE00028333105F1F680917C0790917D07BC0198
:100AF000605C7F4FDC01E8ADF9AD21913191F9AF38
:100B0000E8AF2115310531F04D915C911197F90154
:100B10005183408312966A177B0769F7FB01885956
:100B20009F4FAAADBBAD4D915D91BBAFAAAF411533
:100B3000510529F020813181DA012D933C933296C1
:100B40008E179F0771F7E0917F07F0918007CF0123
:100B5000805B9F4FACADBDAD2D913D91BDAFACAFB6
:100B60002115310551F04081518162817381D90194
:100B70004D935D936D937C93139734968E179F07D7
:100B800049F7E0918207F0918307CF0180569F4F8C
:100B9000AEADBFADED90FD90BFAFAEAFE114F104CF
:100BA000F1F0008111817281638154814581368128
:100BB0002781D7010C9311961C93119712967C9361
:100BC000129713966C93139714965C93149715963B
:100BD0004C93159716963C93169717962C93389628
:100BE0008E179F07A9F6CD5BDF4F0FB6F894DEBFD7
:100BF0000FBECDBFDF91CF911F910F91FF90EF906E
:100C0000DF90CF90BF90AF909F908F907F906F902C
:100C10005F904F903F902F900895B2E0EB1AF1084B
:100C2000F0929B04E0929A0480919E0490919F041C
:100C3000382E292E6090A0047090A1047624672499
:100C400076242091A0044091A20450E01F3009F4C2
:100C50008AC5A0F5133009F480C158F4113009F4A5
:100C6000F5C3123009F484C461E070E0812F90E094
:100C700022C0153009F457C508F40BC51630A1F78A
:100C800020917E078091810790E0880F991FE22FC5
:100C9000F0E08E0F9F1F4091840704E0409FA00169
:100CA0001124480F591F2416350608F449C062E084
:100CB00070E086E090E00E9486034FC0123409F491
:100CC0000BC798F4103109F462C2113469F684E05C
:100CD00090E090939B0480939A0410939D0410924B
:100CE0009E0484E180939F0438C0143409F45EC6E6
:100CF00008F4DDC5153409F0B7CF8D3ABEED9B077A
:100D000009F05EC71092990485E480939D048EE7F4
:100D100080939E0481E2E8E6F4E0DE011196019002
:100D20000D928A95E1F7FE013196AFE9B4E0819129
:100D30009D012C593440882309F450C78D93F7CF77
:100D40002E163F06D8F4220C331CE0917C07F0915C
:100D50007D07E20DF31D7182608280919A0490916B
:100D60009B0402968130914008F45AC580919D04FD
:100D700064E070E090E00E94860352C528163906B0
:100D8000F0F5A30170E060E080917F07909180070B
:100D900020FC1CC091012E1B3F0BF901EE0FFF1F21
:100DA000EC7FF370E80FF91F80819181A281B381FC
:100DB000AA27BB27BA0155274427842B952BA62B9E
:100DC000B72B80839183A283B383C7CFE095F0953F
:100DD000E20DF31DEE0FFF1FEC7FF370E80FF91F1C
:100DE0006080718082809380662477244629572909
:100DF000682979294083518362837383AECF91013F
:100E0000237033274301B12CA12CC12CD12C7601A6
:100E1000E0918207F09183072115310549F5281AE1
:100E2000390A220C331C38EF232237E03322E20D3B
:100E3000F31D5080618072801381B481A58194017B
:100E400040E050E060E070E080E090E000E30E946D
:100E5000F21325292083632A6182742A7282152B5A
:100E60001383B62BB483A72BA5838683978375CF73
:100E70002130310541F54FEF241A340A281A390A76
:100E8000220C331C88EF282287E03822E20DF31D64
:100E90005080618072801381B681A7819401A50181
:100EA000B601C70100E20E94F213522A5082632A5F
:100EB0006182742A7282152B1383648375838B2B52
:100EC00086839A2BD3CF2230310529F5A2E02A0E52
:100ED000311C281A390A220C331CB8EF2B22B7E038
:100EE0003B22E20DF31D5080618074801581B68134
:100EF000A7819401A501B601C70100E10E94F21388
:100F0000522A5082632A618242835383762A7482F2
:100F1000172B1583D4CF03E0200E311C281A390A71
:100F2000220C331C18EF212217E03122E20DF31DB1
:100F3000528143813481258196818781808291828B
:100F40005A2952834B2943833C2934832D292583F5
:100F50009E2996838F29878300CFC301019763E081
:100F600070E08D379105C8F46101C60CD71C409123
:100F70007E07E0918107F0E0EE0FFF1FE40FF11D07
:100F80008091840724E0829FC00111248E0F9F1F4F
:100F9000C816D90628F062E070E083E090E08BCEBE
:100FA000660C771CC301039690939B0480939A046C
:100FB000ACE9B4E011969D012C593440281739074B
:100FC00010F41C92F7CF93E090939D04835080938C
:100FD0009E04E0908207F0908307A0907F07B09076
:100FE0008007A0917C07B0917D07BAA7A9A7A42F7D
:100FF000B0E0BBABAAAB83E090E02C014E1A5F0AD5
:101000003D0160947094C214D30409F4A6CEAAA939
:10101000BBA92A163B0660F49101220F331FA9A534
:10102000BAA52A0F3B1FD9018C9111963C911AC089
:101030002E163F0670F520FC22C0C101AAA9BBA94B
:101040008A1B9B0B880F991F8C7F93708A0D9B1DA9
:10105000DC014D915D916D917C91AB016627772705
:10106000842F352FD40113963C93139714968C93A9
:10107000B2E08B0E911C0FEF201A300AC4CF9301FF
:10108000220D331D220F331F2C7F33702A0D3B1D81
:10109000CACF8101037011270115110521F58101C6
:1010A0000E1B1F0B000F111F087F17700E0D1F1D49
:1010B000D8012C9111963C91119712964C91129750
:1010C00013965C91139714966C91149715967C91D6
:1010D000159716968C91169717969C9100E30E948F
:1010E0000D14822FBFCF0130110511F50E1B1F0B00
:1010F000020D131D000F111F087F17700E0D1F1D0D
:10110000D8012C9111963C91119712964C911297FF
:1011100013965C91139714966C91149715967C9185
:10112000159716968C91169717969C9100E2D7CF3B
:101130000230110511F50E1B1F0B020D131D000FC0
:10114000111F087F17700E0D1F1DD8012C911196CD
:101150003C91119712964C91129713965C911397AC
:1011600014966C91149715967C91159716968C9100
:10117000169717969C9100E1B2CF9201220D331D74
:10118000220F331F287F37702E0D3F1D4CCFC30118
:1011900001978B37910530F4C301880F991F4817C9
:1011A000590729F063E070E080E190E084CDD1013F
:1011B000A60DB71DBDABACAB80917E0740908107FB
:1011C000512C440C551CA82EB12C4A0C5B1C2091B0
:1011D0008407B4E02B9F90011124240D351DECA948
:1011E000FDA9E217F30718F062E070E0DDCF26E01A
:1011F00030E030939B0420939A0410939D04309226
:101200009E0420929F041092A0046092A10460901A
:10121000820770908307C0907F07D0908007DFAA75
:10122000CEAA40917C0750917D079101220F331F78
:101230007A01E20EF31EFBAAEAAAD101A419B509AC
:10124000C50180959095FC01E40DF51D2296FFAF38
:10125000EEAF22976201CA18DB082496DFAECEAE4D
:101260002497ECA8FDA82E143F0409F4D9C2F40178
:1012700047818085542F482F2A143B0488F4EAA91B
:10128000FBA951834083EAA9FBA93296FBABEAABE9
:101290001196FFEF2F1A3F0A02E0800E911CE1CF5A
:1012A00024143504C8F570E060E020FC20C02496CA
:1012B000EEADFFAD2497EA0FFB1FEE0FFF1FEC7F93
:1012C000F370CEA8DFA8EC0DFD1D008111812281F5
:1012D000338122273327BA0155274427402B512B2E
:1012E000622B732B4083518362837383CCCF22960E
:1012F000EEADFFAD2297EA0FFB1FEE0FFF1FEC7F55
:10130000F370EEA8FFA8EE0DFF1D00811181228170
:10131000338100271127E2CFC101837099276A0129
:10132000F12CE12C00E010E09801C9A6DAA6EBA6AA
:10133000FCA60DA71EA72FA738ABFD01009741F50E
:10134000EE0FFF1FE87FF770E60DF71DD080D9AADA
:10135000C180D280E380F480158129A53AA540E0C0
:1013600050E060E070E080E090E000E30E94F21363
:1013700009A9202B20833C2931834D2942835E29F2
:101380005383F62AF482172B1583868397837BCFAA
:101390008130910541F53196EE0FFF1FE87FF77020
:1013A000E60DF71D108119ABC180D280E380F68075
:1013B000178129A53AA540E050E060E070E080E0A8
:1013C00090E000E20E94F21309A9202B20833C291F
:1013D00031834D294283E52AE382648375838F2913
:1013E0008683912BD3CF029729F53296EE0FFF1FFC
:1013F000E87FF770E60DF71D108119ABC180D4802E
:10140000E580F680178129A53AA540E050E060E02C
:1014100070E080E090E000E10E94F21309A9202B27
:1014200020833C29318342835383D62AD482E72AFE
:10143000E582D5CF3396EE0FFF1FE87FF770E60DFC
:10144000F71D19A510832AA521831DCFC30101977C
:1014500063E070E0803D974068F520918707C10107
:10146000860D971D62E070E02817190618F1C30178
:1014700043E0969587954A95E1F79C012D5F3F4F94
:1014800030939B0420939A04930127703327232BD6
:1014900029F0049690939B0480939A0480919A0477
:1014A00090919B04ECE9F4E0813021E0920728F070
:1014B00064E070E081E090E0FECB31969F012C5912
:1014C00034402817390710F41082F7CF91E0909339
:1014D0009D04835080939E04009185071091860798
:1014E00070E060E020E0C12CD12C7601C394D701DC
:1014F000C601022E04C0880F991FAA1FBB1F0A94A1
:10150000D2F789A79AA7ABA7BCA7FB0183E0F69502
:10151000E7958A95E1F7E156FB4F3081A10193E011
:10152000569547959A95E1F74F715527400F511FF2
:10153000DA014C9150E0B22DB77002C05595479535
:10154000BA95E2F789A540FF0FC0832B80832F5FF8
:10155000283009F420E0EFEF2E1A3E0A6F5F7F4F2C
:101560006616770621F6F9CB809538233083EFCFC6
:10157000C301019763E070E0803D974068F52091DA
:101580008D07C101860D971D62E070E028171906CE
:1015900018F1C30113E0969587951A95E1F79C0120
:1015A0002D5F3F4F30939B0420939A049301277043
:1015B0003327232B29F0049690939B0480939A045D
:1015C00080919A0490919B04ECE9F4E0813001E071
:1015D000900728F064E070E082E090E06CCB3196F8
:1015E0009F012C5934402817390710F41082F7CF87
:1015F00092E090939D04835080939E0460918B07AA
:1016000070918C0750E040E010E0C12CD12C7601A5
:10161000C394D701C601012E04C0880F991FAA1FC9
:10162000BB1F0A94D2F789A79AA7ABA7BCA7FA0158
:1016300033E0F695E7953A95E1F7E156FB4F0081E7
:101640009101A3E036952795AA95E1F7260F372F4C
:10165000311DD9012C9130E0B22DB77002C0359503
:101660002795BA95E2F789A520FF0FC0802B8083CC
:101670001F5F183009F410E0EFEF2E1A3E0A4F5F9B
:101680005F4F6416750629F668CB809508230083A2
:10169000EFCFC301019763E070E08D37910550F4FF
:1016A00020918A07C101860D971D2817190628F475
:1016B00062E070E084E090E0FECAC301880F991FE9
:1016C000039690939B0480939A04ECE9F4E031969E
:1016D0009F012C5934402817390710F41082F7CF96
:1016E00094E090939D04835080939E04220C331CBD
:1016F000E0918807F0918907E20DF31D01E0601A7F
:10170000710812E0810E911C2FEF6216720609F427
:1017100024CB808191813296D40111969C931197AC
:1017200012968C93EBCF6114BFEF7B0629F063E038
:1017300070E06114710449F4809187078150990B1E
:101740008215930528F462E070E085E090E0B3CA6A
:1017500041E06114EFEF7E0609F040E060E0C10176
:101760000E949503FACA930113E0369527951A95BE
:10177000E1F7822FB30167707727672B11F081E0C3
:10178000820F930121503109203B374018F4841710
:10179000150629F063E070E08FE090E08CCA20919C
:1017A0008707C101860D971D2817190618F462E0F6
:1017B00070E0F2CF86E090E090939B0480939A04CF
:1017C0008FE080939D0430929E0420929F0470923B
:1017D000A0046092A10410E000E0F12CF801A3E065
:1017E000F695E795AA95E1F7E456FB4F478150E05F
:1017F0000F2C02C0559547950A94E2F7417060E0BE
:10180000C101800F911F0E949503F394B8E0CB2E85
:10181000FC1001C0F12C0F5F1F4F60167106F1F62E
:1018200000919A0410919B04780122E0E20EF11CD1
:10183000F0929B04E0929A040E945B03F801E45644
:10184000FB4F908381838091A00587FD09C061E0F3
:101850000E944E0180919C0590919D050E94DA01A5
:101860008091A1059091A205DC01ED91FC9102808F
:10187000F381E02DA7016CE974E019958091A10531
:101880009091A205DC01ED91FC910680F781E02D9D
:10189000199580919C0590919D050E94DA01809197
:1018A000A00587FDF8C860E00E944E01F4C804E17D
:1018B0002016310408F06FC014E16116710408F0BD
:1018C0006AC06214730408F466C0C101880F991FCE
:1018D000880F991F9C012A5F3B4F79016101E7EA5C
:1018E0008E2EE4E09E2E90E080E0D70112962D919E
:1018F0003C912F30310529F0B12CA12C2733310533
:1019000019F4AA24A394B12C8501080F191F98017A
:10191000255F3F4F21303140E0F5C6010E943E0374
:10192000A501BC01C4010E944D158A0C9B1C9601A7
:101930002F5F3F4FE4E0EE0EF11CC8011601621666
:10194000730628F5C801079690939B0480939A0428
:1019500083E480939D048EE780939E0410929F04FD
:101960002092A0048091790890917A0820917B08B8
:1019700030917C083093A1042093A2049093A30497
:101980008093A4041093A5040093A604E6C96901FA
:10199000ACCF8C01D7CF83E090E090939B048093F1
:1019A0009A0483E480939D0481E829C0F5E12F1611
:1019B0003104E0F48E010F5F1F4F2801F801B12CB4
:1019C000A12C12E0810E911C2A143B04D9F0D40101
:1019D00012968C91129713969C91892798278927A4
:1019E00081939193BFEFAB1ABB0AEBCF83E090E0FA
:1019F00090939B0480939A0410939D0482E88093B3
:101A00009E04ABC9912C812C80E0712C612C0BE0E1
:101A100010E0A814B904E9F1F201E190F1902F016E
:101A2000F4E1EF16F10440F083E090E090939B0422
:101A300080939A0484E4B6CFF701EE0FFF1FEE0FF8
:101A4000FF1FEA5FFB4F228133812F30310529F0E0
:101A5000D12CC12C2733310519F4CC24C394D12CBB
:101A600018012C0C3D1C21E02216320690F4C7010F
:101A70000E943E03A601BC01C80184569B4F0E94F0
:101A80004D156C0C7D1C3FEF831A930A8E2D81013E
:101A9000C0CF10939B0400939A0494E490939D0408
:101AA0009EE790939E0410929F048093A0048091DF
:101AB000790890917A0820917B0830917C083093C6
:101AC000A1042093A2049093A3048093A404709291
:101AD000A5046092A60441C944E12416310450F4DF
:101AE0008091A1049091A2049827892798278A3F82
:101AF000910540F083E090E090939B0480939A04DA
:101B000082E450CFF101EE0FFF1FEE0FFF1FEA5FDF
:101B1000FB4F0081118182819381222309F440C00F
:101B20008F30910529F0F12CE12C8733910519F4C0
:101B3000EE24E394F12C8F30910569F0C797C9F03A
:101B400083E090E090939B0480939A0482E48093D6
:101B50009D048EE754CFA70163EA74E0C8010E9498
:101B60004D15D80111968C911197826011968C9326
:101B7000E7CFA70163EA74E0F801808191810E94B8
:101B80004D15A70163EA74E0C80103960E944D1544
:101B9000D80112968C911297826012968C93D0CFB6
:101BA0008F30910541F0C79759F6D80112968C9164
:101BB00012978D7FF2CFF80181818D7F8183C0CF15
:101BC0008E3D9D4A21F481E0809399049DC883E075
:101BD00090E090939B0480939A0496C830939B0462
:101BE00020939A04BAC81F920F920FB60F92112435
:101BF0002F933F938F939F93AF93BF9380918708C9
:101C000090918808A0918908B0918A08309186083F
:101C100023E0230F2D3758F50196A11DB11D209308
:101C200086088093870890938808A0938908B093CA
:101C30008A0880918B0890918C08A0918D08B091B2
:101C40008E080196A11DB11D80938B0890938C087E
:101C5000A0938D08B0938E08BF91AF919F918F9103
:101C60003F912F910F900FBE0F901F90189526E86F
:101C7000230F0296A11DB11DD2CF1F920F920FB656
:101C80000F9211240BB60F922F933F934F935F93B4
:101C90006F937F938F939F93AF93BF93EF93FF9334
:101CA0008EE897E00E947E02FF91EF91BF91AF9185
:101CB0009F918F917F916F915F914F913F912F9164
:101CC0000F900BBE0F900FBE0F901F9018951F9294
:101CD0000F920FB60F9211240BB60F922F938F9382
:101CE0009F93EF93FF93E0919E07F0919F07808170
:101CF000E091A407F091A50782FD1DC0908180911D
:101D0000A7078F5F8F732091A807821741F0E0919A
:101D1000A707F0E0E257F84F958F8093A707FF9150
:101D2000EF919F918F912F910F900BBE0F900FBE4F
:101D30000F901F9018958081F2CF789484B58260BF
:101D400084BD84B5816084BD85B5826085BD85B55F
:101D5000816085BD80916E00816080936E001092DD
:101D60008100809181008260809381008091810058
:101D700081608093810080918000816080938000E9
:101D80008091B10084608093B1008091B000816047
:101D90008093B00080919100826080939100809147
:101DA0009100816080939100809190008160809388
:101DB00090008091A10082608093A1008091A10099
:101DC00081608093A1008091A00081608093A00039
:101DD00080912101826080932101809121018160A5
:101DE0008093210180912001816080932001809166
:101DF0007A00846080937A0080917A008260809378
:101E00007A0080917A00816080937A0080917A00D4
:101E1000806880937A001092C10021E020932B0803
:101E200010922D0810922F0810923108109233084A
:101E3000A8E9CA2EA4E0DA2ED0923608C09235085E
:101E400010929804B7E9EB2EB4E0FB2EF0923A081A
:101E5000E09239081092970406E914E010933E08C6
:101E600000933D0810929604C5E9D4E0D09342084F
:101E7000C093410810929504A4E9B4E0B0934608D9
:101E8000A093450810929404E3E9F4E0F0934A0823
:101E9000E09349081092930462E974E070934E084D
:101EA00060934D081092920441E954E05093520817
:101EB000409351081092910420E934E03093560881
:101EC00020935508109290048FE894E090935A085C
:101ED0008093590810928F040F2EFEE8AF2EF4E085
:101EE000BF2EF02DB0925E08A0925D0810928E0475
:101EF0000F2EFDE88F2EF4E09F2EF02D90926208B9
:101F00008092610810928D040F2EFCE86F2EF4E091
:101F10007F2EF02D709266086092650810928C04F6
:101F20000F2EFBE84F2EF4E05F2EF02D50926A0842
:101F30004092690810928B040F2EFAE82F2EF4E0DD
:101F40003F2EF02D30926E0820926D0810928A0478
:101F5000D0920C07C0920B07F0920E07E0920D078B
:101F60001093100700930F07D0931207C093110727
:101F7000B0930C0CA0930B0CF0930E0CE0930D0C93
:101F80007093100C60930F0C5093120C4093110C33
:101F90003093140C2093130C90931C0C80931B0C07
:101FA000B0921E0CA0921D0C9092200C80921F0CDF
:101FB0007092220C6092210C5092240C4092230CBF
:101FC0003092260C2092250CE0919E07F0919F07FD
:101FD00082E08083E0919A07F0919B071082E09164
:101FE0009C07F0919D0780E180831092A607E09105
:101FF000A207F091A30786E08083E091A007F0910B
:10200000A107808180618083E091A007F091A10702
:10201000808188608083E091A007F091A107808192
:1020200080688083E091A007F091A10780818F7D77
:1020300080838EE897E09093A2058093A1058FEFAF
:102040008093A0058EEE92E090939F0580939E056D
:1020500081E49AE090939D0580939C0531E0309354
:102060007B0784E380937E0784E1809381078093DC
:10207000840788E38093870790E290938A07809390
:102080008D0787E090E00E94281490938607809344
:102090008507009709F451C0C7E0FC012C2F11926D
:1020A0002A95E9F788E690E00E94281490937D072E
:1020B00080937C07009709F440C028E6FC01119248
:1020C0002A95E9F780E590E00E9428149093800714
:1020D00080937F07009789F120E5FC0111922A95F2
:1020E000E9F780EA90E00E94281490938307809398
:1020F0008207009711F120EAFC0111922A95E9F775
:1021000087E090E00E94281490938C0780938B07BF
:10211000009799F0FC011192CA95E9F780E490E0EC
:102120000E9428149093890780938807009729F0CC
:1021300020E4FC0111922A95E9F7D0E0C0E08E017D
:10214000000F111F055F184FF80180819181892BC5
:1021500049F481E090E00E942814F8019183808383
:10216000FC0110822196C833D10549F7C0917C0744
:10217000D0917D07EBECF6E090E080E02191319189
:10218000232B39F4DF0112979E01280F391F2D935D
:102190003C9302968034910589F710E000E0C80175
:1021A000880F991F9C01255A394F7901F9018081C7
:1021B0009181892B49F481E090E00E942814F70175
:1021C00091838083FC0110820F5F1F4F083311053C
:1021D00031F72091880730918907EBE1F6E090E034
:1021E00080E041915191452B39F4DF011297A9010B
:1021F000480F591F4D935C9302968034910589F7DF
:10220000E3EFF5E090E080E0C05CDF4F2191319199
:10221000232B39F4DF0112979E01280F391F2D93CC
:102220003C9302968832910589F740917F0750913F
:102230008007EBECF5E090E080E021913191232BD9
:1022400059F4DF0112979C01220F331F220F331F15
:10225000240F351F2D933C9301968431910569F726
:102260004091820750918307E3EAF5E090E080E037
:1022700021913191232B61F4DF0112979C0163E0DE
:10228000220F331F6A95E1F7240F351F2D933C93DE
:1022900001968431910561F780E29EE4A0E0B0E010
:1022A00080937E0890937F08A0938008B093810864
:1022B0000E94E501609382087093830880938408EC
:1022C00090938508C1E00E94E50100918208109179
:1022D00083082091840830918508601B710B820B64
:1022E000930B00917E0810917F0820918008309117
:1022F0008108601771078207930708F45BC180911A
:10230000790890917A08A0917B08B0917C08019699
:10231000A11DB11D8093790890937A08A0937B0842
:10232000B0937C0890915708892F827091FF5BC110
:102330009091580891115EC190915808911168C10F
:1023400090915808911171C180915808882329F003
:102350008091320881FF1092310890915308892FA3
:10236000827091FF74C190915408911177C190913E
:102370005408911181C190915408992339F090919A
:102380002E0891FF8FC1882309F483C180915408DE
:10239000882329F08091300881FF10922F088091C6
:1023A0004708982F927081FF80C180914808811161
:1023B00083C180914808882349F080912B088823A5
:1023C00029F080912C0881FF10922B0880914B08F6
:1023D000982F927081FF81C180914C08811184C136
:1023E00080914C08882349F080912D08882329F09A
:1023F00080912E0881FF10922D0880914F08982F10
:10240000927081FF82C180915008811185C18091B5
:102410005008882349F080912F08882329F0809163
:10242000300881FF10922F088091370881FD07C086
:10243000E0913508F091360880912B0880838091D7
:102440003B0881FD07C0E0913908F0913A0880917E
:102450002D08808380913F0881FD07C0E0913D08F1
:10246000F0913E0880912F0880838091430881FD80
:1024700007C0E0914108F0914208809131088083C3
:1024800080915B0881FD07C0E0915908F0915A08DE
:1024900080912B08808380915F0881FD07C0E091C7
:1024A0005D08F0915E0880912D088083809163081B
:1024B00081FD07C0E0916108F091620880912F08CA
:1024C00080838091670881FD07C0E0916508F091E5
:1024D000660880913108808380916B0881FD07C078
:1024E000E0916908F0916A0880912F0880838091BB
:1024F0006F0881FD07C0E0916D08F0916E08809132
:102500002F0880838091750890917608A0917708B4
:10251000B0917808AC01BD01535D6E4C7E4F411502
:10252000FAEC5F07FAE96F07FBE37F0708F005C1E4
:1025300040937508509376086093770870937808F5
:102540000E94C10380917D08811118C0C0937D084D
:102550000E94E50100917E0810917F08209180087B
:1025600030918108601B710B820B930B6093820882
:1025700070938308809384089093850880918208E3
:1025800090918308A0918408B091850840917E08BD
:1025900050917F086091800870918108840F951F89
:1025A000A61FB71F8093820890938308A093840886
:1025B000B09385080E94E50100918208109183087C
:1025C0002091840830918508601B710B820B930B5E
:1025D000603177428105910510F00E94C103889512
:1025E0000E940D0370CEE0915508F091560890813D
:1025F000992339F090912C0891FFC0932B088111F9
:102600009BCEE0915508F09156089081992331F0C6
:1026100090912E0891FF15C0811192CEE09155083E
:10262000F09156089081992331F09091300891FFF4
:102630000BC0811189CEE0915508F0915608808138
:1026400085CE10922D08E8CF10922F08F2CFE0919E
:102650005108F09152089081992339F090913208F5
:1026600091FFC0933108811182CEE0915108F09121
:1026700052089081992331F090912C0891FF0FC05E
:10268000811179CEE0915108F09152089081911119
:1026900076CEE0915108F0915208808179CE109267
:1026A0002B08EECF10922D086ECEE0914508F091E8
:1026B00046088081882359F080912B08882329F0CF
:1026C00080912E0881FFC0932D08911172CEE09168
:1026D0004508F091460880816ECEE0914908F0915E
:1026E0004A088081882359F080912D08882329F099
:1026F0008091300881FFC0932F08911171CEE09135
:102700004908F0914A0880816DCEE0914D08F09122
:102710004E088081882359F080912F08882329F062
:1027200080912C0881FFC0932B08911170CEE0910D
:102730004D08F0914E0880816CCE40917108509107
:10274000720860917308709174089D59A946BA4344
:102750008093750890937608A0937708B0937808D3
:102760004F5F5F4F6F4F7F4F4093710850937208D8
:102770006093730870937408E3CEEEE8F7E0138279
:10278000128288EE93E0A0E0B0E084839583A68374
:10279000B7838AE594E09183808385EC90E0958708
:1027A000848784EC90E09787868780EC90E0918B1B
:1027B000808B81EC90E0938B828B82EC90E0958B08
:1027C000848B86EC90E0978B868B118E128E138E05
:1027D000148E0895EE0FFF1F881F8BBF0790F69190
:1027E000E02D1994002E083090F0982F872F762F27
:1027F000652F542F432F322F22270850F4CF220F5A
:10280000331F441F551F661F771F881F991F0A9586
:10281000B2F7002D089597FD1094002E083098F01F
:102820000850232F342F452F562F672F782F892FAD
:10283000912DF4CF15949795879577956795579532
:102840004795379527950A95AAF71124002D0895E5
:102850000F931F93CF93DF938230910510F482E0A2
:1028600090E0E0919108F091920830E020E0B0E033
:10287000A0E0309799F42115310509F44AC0281BCE
:10288000390B24303105D8F58A819B81611571059A
:1028900089F1FB0193838283FE0111C04081518144
:1028A0000281138148175907E0F04817590799F436
:1028B000109761F012960C93129713961C93329610
:1028C000CF01DF91CF911F910F910895009391084F
:1028D00010939208F4CF2115310551F04217530798
:1028E00038F0A901DB019A01BD01DF01F801C1CF78
:1028F000EF01F9CF9093920880939108CDCFFE011C
:10290000E20FF31F81939193225031093983288379
:10291000D7CF20918F0830919008232B41F420913C
:102920000202309103023093900820938F08209187
:102930000002309101022115310541F42DB73EB757
:102940004091040250910502241B350BE0918F0841
:10295000F0919008E217F307A0F42E1B3F0B281705
:10296000390778F0AC014E5F5F4F2417350748F008
:102970004E0F5F1F5093900840938F08819391935F
:102980009FCFF0E0E0E09CCFCF93DF930097E9F09A
:10299000FC01329713821282A0919108B0919208A3
:1029A000ED0130E020E01097A1F420813181820F09
:1029B000931F20918F08309190082817390709F04C
:1029C00061C0F0939008E0938F08DF91CF91089554
:1029D000EA01CE17DF07E8F54A815B819E014115C8
:1029E0005105B1F7E901FB83EA8349915991C40F7D
:1029F000D51FEC17FD0761F4808191810296840F49
:102A0000951FE90199838883828193819B838A83BF
:102A1000F0E0E0E012968D919C9113970097B9F544
:102A20002D913C911197CD010296820F931F209119
:102A30008F08309190082817390739F6309751F5EB
:102A40001092920810929108B0939008A0938F086A
:102A5000BCCFD383C28340815181840F951FC81797
:102A6000D90761F44E5F5F4F88819981480F591FE4
:102A7000518340838A819B81938382832115310511
:102A800009F0B0CFF0939208E09391089ECFFD013A
:102A9000DC01C0CF13821282D7CFFB01DC0102C060
:102AA00001900D9241505040D8F70895F894FFCF0F
:102AB00000009308800000C0C101C30302C2C60623
:102AC00007C705C5C404CC0C0DCD0FCFCE0E0ACA66
:102AD000CB0BC90908C8D81819D91BDBDA1A1EDEB6
:102AE000DF1FDD1D1CDC14D4D515D71716D6D21266
:102AF00013D311D1D010F03031F133F3F23236F676
:102B0000F737F53534F43CFCFD3DFF3F3EFEFA3A25
:102B10003BFB39F9F83828E8E929EB2B2AEAEE2EB5
:102B20002FEF2DEDEC2CE42425E527E7E62622E225
:102B3000E323E12120E0A06061A163A3A26266A675
:102B4000A767A56564A46CACAD6DAF6F6EAEAA6AE5
:102B50006BAB69A9A86878B8B979BB7B7ABABE7E35
:102B60007FBF7DBDBC7CB47475B577B7B67672B2E5
:102B7000B373B17170B05090915193535292965675
:102B80005797559594549C5C5D9D5F9F9E5E5A9AA5
:102B90009B5B99595898884849894B8B8A4A4E8E35
:102BA0008F4F8D4D4C8C44848545874746868242A5
:102BB00043834181804000C1814001C0804101C008
:102BC000804100C1814001C0804100C1814000C1FD
:102BD000814001C0804101C0804100C1814000C1ED
:102BE000814001C0804100C1814001C0804101C0DD
:102BF000804100C1814001C0804100C1814000C1CD
:102C0000814001C0804100C1814001C0804101C0BC
:102C1000804100C1814000C1814001C0804101C0AC
:102C2000804100C1814001C0804100C1814000C19C
:102C3000814001C0804101C0804100C1814000C18C
:102C4000814001C0804100C1814001C0804101C07C
:102C5000804100C1814000C1814001C0804101C06C
:102C6000804100C1814001C0804100C1814000C15C
:102C7000814001C0804100C1814001C0804101C04C
:102C8000804100C1814001C0804100C1814000C13C
:102C9000814001C0804101C0804100C1814000C12C
:102CA000814001C0804100C1814001C0804101C01C
:102CB000804100C181402B080F002D080F002F0814
:102CC0000F0031080F0033080F00350837003908AE
:102CD00037003D08370041083700450837004908EC
:102CE00037004D083700510837005508370059089C
:102CF00037005D083700610837006508370069084C
:102D000037006D08370000000000A0020A023702F9
:102D1000ED02680246025A0238646335376566334D
:102D200063653237613463623833306162643666BA
:0A2D30003834633366396266000030
:00000001FF
